{
  "transactions": [
    {
      "hash": "0x90b6873739adc7e18245069dd9bd11aeae518ca41c85d985b87cf72fd0d6a142",
      "transactionType": "CALL",
      "contractName": null,
      "contractAddress": "0xe03a1074c86cfedd5c142c4f04f1a1536e203543",
      "function": "initialize((address,address,uint24,int24,address),uint160)",
      "arguments": [
        "(0x0000000000000000000000000000000000000000, 0xf08A50178dfcDe18524640EA6618a1f965821715, 3000, 60, 0x0000000000000000000000000000000000000000)",
        "79228162514264337593543950336"
      ],
      "transaction": {
        "from": "0x6bf0c2c8c188c1775fd889fa8c2ef7a38fab9c25",
        "to": "0xe03a1074c86cfedd5c142c4f04f1a1536e203543",
        "gas": "0x114be",
        "value": "0x0",
        "input": "0x6276cbbe0000000000000000000000000000000000000000000000000000000000000000000000000000000000000000f08a50178dfcde18524640ea6618a1f9658217150000000000000000000000000000000000000000000000000000000000000bb8000000000000000000000000000000000000000000000000000000000000003c00000000000000000000000000000000000000000000000000000000000000000000000000000000000000000000000000000001000000000000000000000000",
        "nonce": "0x49",
        "chainId": "0xaa36a7"
      },
      "additionalContracts": [],
      "isFixedGasLimit": false
    }
  ],
  "receipts": [
    {
      "status": "0x1",
      "cumulativeGasUsed": "0xfa8f52",
      "logs": [
        {
          "address": "0xe03a1074c86cfedd5c142c4f04f1a1536e203543",
          "topics": [
            "0xdd466e674ea557f56295e2d0218a125ea4b4f0f6f3307b95f85e6110838d6438",
            "0xe332a5e801ef919cfbb411d56ed82d28f608094e5a4cc6e207df55192c2bc06f",
            "0x0000000000000000000000000000000000000000000000000000000000000000",
            "0x000000000000000000000000f08a50178dfcde18524640ea6618a1f965821715"
          ],
          "data": "0x0000000000000000000000000000000000000000000000000000000000000bb8000000000000000000000000000000000000000000000000000000000000003c000000000000000000000000000000000000000000000000000000000000000000000000000000000000000000000000000000010000000000000000000000000000000000000000000000000000000000000000000000000000000000000000",
          "blockHash": "0x48257b57ae50d06756fd82d30197228888bb698ff5f80667e731d1e293ff7de1",
          "blockNumber": "0x7a6e09",
          "transactionHash": "0x90b6873739adc7e18245069dd9bd11aeae518ca41c85d985b87cf72fd0d6a142",
          "transactionIndex": "0x49",
          "logIndex": "0x80",
          "removed": false
        }
      ],
      "logsBloom": "0x00000000000000000100000000000000000000000000000000000000000000000000000000000000000000000000000000000100000000000000000000000000000000000000000000000000000000000000000000000000000000000000000000000000020800000000000000000800000040000000100000000000000000000000000002000008000000000000000000000001000000000000000000200000000000000000000000000000000000008000000000000000000000000000000000000000000000000000200000000000000000000000000000000000000020001000000000000000000000000000000000000000000000000000000000000000",
      "type": "0x2",
      "transactionHash": "0x90b6873739adc7e18245069dd9bd11aeae518ca41c85d985b87cf72fd0d6a142",
      "transactionIndex": "0x49",
      "blockHash": "0x48257b57ae50d06756fd82d30197228888bb698ff5f80667e731d1e293ff7de1",
      "blockNumber": "0x7a6e09",
      "gasUsed": "0xc85c",
      "effectiveGasPrice": "0xf431b",
      "from": "0x6bf0c2c8c188c1775fd889fa8c2ef7a38fab9c25",
      "to": "0xe03a1074c86cfedd5c142c4f04f1a1536e203543",
      "contractAddress": null
    }
  ],
  "libraries": [],
  "pending": [],
  "returns": {},
  "timestamp": 1743459842,
  "chain": 11155111,
  "commit": "583eea2"
}