{
  "transactions": [
    {
      "hash": "0x453ac03312ea97eaa897f337a7d003e33993424627e2deb327a06ce29565a2f4",
      "transactionType": "CALL",
      "contractName": null,
      "contractAddress": "0xe03a1074c86cfedd5c142c4f04f1a1536e203543",
      "function": "initialize((address,address,uint24,int24,address),uint160)",
      "arguments": [
        "(0x0000000000000000000000000000000000000000, 0xA0b86991c6218b36c1d19D4a2e9Eb0cE3606eB48, 3000, 60, 0x0000000000000000000000000000000000000000)",
        "79228162514264337593543950336"
      ],
      "transaction": {
        "from": "0x6bf0c2c8c188c1775fd889fa8c2ef7a38fab9c25",
        "to": "0xe03a1074c86cfedd5c142c4f04f1a1536e203543",
        "gas": "0x114be",
        "value": "0x0",
        "input": "0x6276cbbe0000000000000000000000000000000000000000000000000000000000000000000000000000000000000000a0b86991c6218b36c1d19d4a2e9eb0ce3606eb480000000000000000000000000000000000000000000000000000000000000bb8000000000000000000000000000000000000000000000000000000000000003c00000000000000000000000000000000000000000000000000000000000000000000000000000000000000000000000000000001000000000000000000000000",
        "nonce": "0x48",
        "chainId": "0xaa36a7"
      },
      "additionalContracts": [],
      "isFixedGasLimit": false
    }
  ],
  "receipts": [
    {
      "status": "0x1",
      "cumulativeGasUsed": "0x69d149",
      "logs": [
        {
          "address": "0xe03a1074c86cfedd5c142c4f04f1a1536e203543",
          "topics": [
            "0xdd466e674ea557f56295e2d0218a125ea4b4f0f6f3307b95f85e6110838d6438",
            "0xdce6394339af00981949f5f3baf27e3610c76326a700af57e4b3e3ae4977f78d",
            "0x0000000000000000000000000000000000000000000000000000000000000000",
            "0x000000000000000000000000a0b86991c6218b36c1d19d4a2e9eb0ce3606eb48"
          ],
          "data": "0x0000000000000000000000000000000000000000000000000000000000000bb8000000000000000000000000000000000000000000000000000000000000003c000000000000000000000000000000000000000000000000000000000000000000000000000000000000000000000000000000010000000000000000000000000000000000000000000000000000000000000000000000000000000000000000",
          "blockHash": "0x455050e75aa3aabc4c30b8f4d324e62a7c09c6fe43f74457033e2b87d63e0499",
          "blockNumber": "0x7a69ed",
          "transactionHash": "0x453ac03312ea97eaa897f337a7d003e33993424627e2deb327a06ce29565a2f4",
          "transactionIndex": "0x50",
          "logIndex": "0x58",
          "removed": false
        }
      ],
      "logsBloom": "0x00000000000000000000000000000000000000000000000000000000000000000000000000000000000002000000000000000100000000000000000000000000000000000000000000000000000000000000000000000000000000000000000000000000020000000000000000000800000000000000100000000000000000000000000000000008000000000000000200000001000000000000000000200010000000000000000000000000000100000000000000000000000000000000000000000000000000000000000000000000000000000000000000000000000020001000000000000000000000000000000004000000000000000000000200000000",
      "type": "0x2",
      "transactionHash": "0x453ac03312ea97eaa897f337a7d003e33993424627e2deb327a06ce29565a2f4",
      "transactionIndex": "0x50",
      "blockHash": "0x455050e75aa3aabc4c30b8f4d324e62a7c09c6fe43f74457033e2b87d63e0499",
      "blockNumber": "0x7a69ed",
      "gasUsed": "0xc85c",
      "effectiveGasPrice": "0x1585e8",
      "from": "0x6bf0c2c8c188c1775fd889fa8c2ef7a38fab9c25",
      "to": "0xe03a1074c86cfedd5c142c4f04f1a1536e203543",
      "contractAddress": null
    }
  ],
  "libraries": [],
  "pending": [],
  "returns": {},
  "timestamp": 1743447108,
  "chain": 11155111,
  "commit": "583eea2"
}