{
  "transactions": [
    {
      "hash": "0xd99f8ddcbeeae810fc7fa11378c278b90f96a7b5f450542e91fb74341d2c0f7c",
      "transactionType": "CALL",
      "contractName": null,
      "contractAddress": "0x1c7d4b196cb0c7b01d743fbc6116a902379c7238",
      "function": "approve(address,uint256)",
      "arguments": [
        "0x000000000022D473030F116dDEE9F6B43aC78BA3",
        "115792089237316195423570985008687907853269984665640564039457584007913129639935"
      ],
      "transaction": {
        "from": "0x6bf0c2c8c188c1775fd889fa8c2ef7a38fab9c25",
        "to": "0x1c7d4b196cb0c7b01d743fbc6116a902379c7238",
        "gas": "0x12ca9",
        "value": "0x0",
        "input": "0x095ea7b3000000000000000000000000000000000022d473030f116ddee9f6b43ac78ba3ffffffffffffffffffffffffffffffffffffffffffffffffffffffffffffffff",
        "nonce": "0x4a",
        "chainId": "0xaa36a7"
      },
      "additionalContracts": [],
      "isFixedGasLimit": false
    },
    {
      "hash": "0xfbe602e3e22f671d1649893bbbc43418b1d0c1a7a01c1feb14bc5af17650c531",
      "transactionType": "CALL",
      "contractName": null,
      "contractAddress": "0x000000000022d473030f116ddee9f6b43ac78ba3",
      "function": "approve(address,address,uint160,uint48)",
      "arguments": [
        "0x1c7D4B196Cb0C7B01d743Fbc6116a902379C7238",
        "0x429ba70129df741B2Ca2a85BC3A2a3328e5c09b4",
        "1461501637330902918203684832716283019655932542975",
        "281474976710655"
      ],
      "transaction": {
        "from": "0x6bf0c2c8c188c1775fd889fa8c2ef7a38fab9c25",
        "to": "0x000000000022d473030f116ddee9f6b43ac78ba3",
        "gas": "0x1112d",
        "value": "0x0",
        "input": "0x87517c450000000000000000000000001c7d4b196cb0c7b01d743fbc6116a902379c7238000000000000000000000000429ba70129df741b2ca2a85bc3a2a3328e5c09b4000000000000000000000000ffffffffffffffffffffffffffffffffffffffff0000000000000000000000000000000000000000000000000000ffffffffffff",
        "nonce": "0x4b",
        "chainId": "0xaa36a7"
      },
      "additionalContracts": [],
      "isFixedGasLimit": false
    },
    {
      "hash": "0x4b7a6235f080add68161820b179d243cbea48112193d0b2b9d0e07b44aba801b",
      "transactionType": "CALL",
      "contractName": null,
      "contractAddress": "0x429ba70129df741b2ca2a85bc3a2a3328e5c09b4",
      "function": "modifyLiquidities(bytes,uint256)",
      "arguments": [
        "0x000000000000000000000000000000000000000000000000000000000000004000000000000000000000000000000000000000000000000000000000000000800000000000000000000000000000000000000000000000000000000000000002020d00000000000000000000000000000000000000000000000000000000000000000000000000000000000000000000000000000000000000000000000000020000000000000000000000000000000000000000000000000000000000000040000000000000000000000000000000000000000000000000000000000000020000000000000000000000000000000000000000000000000000000000000001a000000000000000000000000000000000000000000000000000000000000000000000000000000000000000001c7d4b196cb0c7b01d743fbc6116a902379c72380000000000000000000000000000000000000000000000000000000000000bb8000000000000000000000000000000000000000000000000000000000000003c0000000000000000000000000000000000000000000000000000000000000000fffffffffffffffffffffffffffffffffffffffffffffffffffffffffffffb50000000000000000000000000000000000000000000000000000000000000000000000000000000000000000000000000000000000000000000000000020c102600000000000000000000000000000000000000000000000000005af3107a400000000000000000000000000000000000000000000000000000000000001e88670000000000000000000000006bf0c2c8c188c1775fd889fa8c2ef7a38fab9c2500000000000000000000000000000000000000000000000000000000000001800000000000000000000000000000000000000000000000000000000000000000000000000000000000000000000000000000000000000000000000000000004000000000000000000000000000000000000000000000000000000000000000000000000000000000000000001c7d4b196cb0c7b01d743fbc6116a902379c7238",
        "1743479328"
      ],
      "transaction": {
        "from": "0x6bf0c2c8c188c1775fd889fa8c2ef7a38fab9c25",
        "to": "0x429ba70129df741b2ca2a85bc3a2a3328e5c09b4",
        "gas": "0x59600",
        "value": "0x5af3107a4000",
        "input": "0xdd46508f00000000000000000000000000000000000000000000000000000000000000400000000000000000000000000000000000000000000000000000000067eb62200000000000000000000000000000000000000000000000000000000000000300000000000000000000000000000000000000000000000000000000000000004000000000000000000000000000000000000000000000000000000000000000800000000000000000000000000000000000000000000000000000000000000002020d00000000000000000000000000000000000000000000000000000000000000000000000000000000000000000000000000000000000000000000000000020000000000000000000000000000000000000000000000000000000000000040000000000000000000000000000000000000000000000000000000000000020000000000000000000000000000000000000000000000000000000000000001a000000000000000000000000000000000000000000000000000000000000000000000000000000000000000001c7d4b196cb0c7b01d743fbc6116a902379c72380000000000000000000000000000000000000000000000000000000000000bb8000000000000000000000000000000000000000000000000000000000000003c0000000000000000000000000000000000000000000000000000000000000000fffffffffffffffffffffffffffffffffffffffffffffffffffffffffffffb50000000000000000000000000000000000000000000000000000000000000000000000000000000000000000000000000000000000000000000000000020c102600000000000000000000000000000000000000000000000000005af3107a400000000000000000000000000000000000000000000000000000000000001e88670000000000000000000000006bf0c2c8c188c1775fd889fa8c2ef7a38fab9c2500000000000000000000000000000000000000000000000000000000000001800000000000000000000000000000000000000000000000000000000000000000000000000000000000000000000000000000000000000000000000000000004000000000000000000000000000000000000000000000000000000000000000000000000000000000000000001c7d4b196cb0c7b01d743fbc6116a902379c7238",
        "nonce": "0x4c",
        "chainId": "0xaa36a7"
      },
      "additionalContracts": [],
      "isFixedGasLimit": false
    }
  ],
  "receipts": [
    {
      "status": "0x1",
      "cumulativeGasUsed": "0xe41b64",
      "logs": [
        {
          "address": "0x1c7d4b196cb0c7b01d743fbc6116a902379c7238",
          "topics": [
            "0x8c5be1e5ebec7d5bd14f71427d1e84f3dd0314c0f7b2291e5b200ac8c7c3b925",
            "0x0000000000000000000000006bf0c2c8c188c1775fd889fa8c2ef7a38fab9c25",
            "0x000000000000000000000000000000000022d473030f116ddee9f6b43ac78ba3"
          ],
          "data": "0xffffffffffffffffffffffffffffffffffffffffffffffffffffffffffffffff",
          "blockHash": "0x39cf210ac1f620b8b30c5741392f0177714eee045b779b3652e8673221f15feb",
          "blockNumber": "0x7a7453",
          "transactionHash": "0xd99f8ddcbeeae810fc7fa11378c278b90f96a7b5f450542e91fb74341d2c0f7c",
          "transactionIndex": "0x81",
          "logIndex": "0xf6",
          "removed": false
        }
      ],
      "logsBloom": "0x00000000000000000000000000000000000000000000000000000000000200000000000000000000000000000000000000000000800000000000000000200000000000000000000000004000000000000000000000000800000000000000000000000000000000000000000000000000000000000000000000020000000000000000000000100000000000000000000000000000000000000000000000000000020000000000000000000000000000000000000000000000000000000000000000000000000000000000000001000000000000000000000000000000000000000010000000000000000010200000000000000000000000000000000000000000",
      "type": "0x2",
      "transactionHash": "0xd99f8ddcbeeae810fc7fa11378c278b90f96a7b5f450542e91fb74341d2c0f7c",
      "transactionIndex": "0x81",
      "blockHash": "0x39cf210ac1f620b8b30c5741392f0177714eee045b779b3652e8673221f15feb",
      "blockNumber": "0x7a7453",
      "gasUsed": "0xd9ad",
      "effectiveGasPrice": "0x1b43156",
      "from": "0x6bf0c2c8c188c1775fd889fa8c2ef7a38fab9c25",
      "to": "0x1c7d4b196cb0c7b01d743fbc6116a902379c7238",
      "contractAddress": null
    },
    {
      "status": "0x1",
      "cumulativeGasUsed": "0xe4d62e",
      "logs": [
        {
          "address": "0x000000000022d473030f116ddee9f6b43ac78ba3",
          "topics": [
            "0xda9fa7c1b00402c17d0161b249b1ab8bbec047c5a52207b9c112deffd817036b",
            "0x0000000000000000000000006bf0c2c8c188c1775fd889fa8c2ef7a38fab9c25",
            "0x0000000000000000000000001c7d4b196cb0c7b01d743fbc6116a902379c7238",
            "0x000000000000000000000000429ba70129df741b2ca2a85bc3a2a3328e5c09b4"
          ],
          "data": "0x000000000000000000000000ffffffffffffffffffffffffffffffffffffffff0000000000000000000000000000000000000000000000000000ffffffffffff",
          "blockHash": "0x39cf210ac1f620b8b30c5741392f0177714eee045b779b3652e8673221f15feb",
          "blockNumber": "0x7a7453",
          "transactionHash": "0xfbe602e3e22f671d1649893bbbc43418b1d0c1a7a01c1feb14bc5af17650c531",
          "transactionIndex": "0x82",
          "logIndex": "0xf7",
          "removed": false
        }
      ],
      "logsBloom": "0x00010000000000000000000000000000000000000000000000000000000000000000000000000040080000000000000000000000000004000000000000080000100000000000000000000000000000000000000000000000000000000000000000000000000000000000000000000000000000000000000000020800000000000020000000000000000000000000000000000000000000000000000000000000000000000000000000000000000000000000008000000000000000080000000000000000000000000000000001000000000000000000000040000000000000000000000000000000000000200000000000000000000000000000000000000400",
      "type": "0x2",
      "transactionHash": "0xfbe602e3e22f671d1649893bbbc43418b1d0c1a7a01c1feb14bc5af17650c531",
      "transactionIndex": "0x82",
      "blockHash": "0x39cf210ac1f620b8b30c5741392f0177714eee045b779b3652e8673221f15feb",
      "blockNumber": "0x7a7453",
      "gasUsed": "0xbaca",
      "effectiveGasPrice": "0x1b43156",
      "from": "0x6bf0c2c8c188c1775fd889fa8c2ef7a38fab9c25",
      "to": "0x000000000022d473030f116ddee9f6b43ac78ba3",
      "contractAddress": null
    },
    {
      "status": "0x1",
      "cumulativeGasUsed": "0xe8e17a",
      "logs": [
        {
          "address": "0x429ba70129df741b2ca2a85bc3a2a3328e5c09b4",
          "topics": [
            "0xddf252ad1be2c89b69c2b068fc378daa952ba7f163c4a11628f55a4df523b3ef",
            "0x0000000000000000000000000000000000000000000000000000000000000000",
            "0x0000000000000000000000006bf0c2c8c188c1775fd889fa8c2ef7a38fab9c25",
            "0x000000000000000000000000000000000000000000000000000000000000275d"
          ],
          "data": "0x",
          "blockHash": "0x39cf210ac1f620b8b30c5741392f0177714eee045b779b3652e8673221f15feb",
          "blockNumber": "0x7a7453",
          "transactionHash": "0x4b7a6235f080add68161820b179d243cbea48112193d0b2b9d0e07b44aba801b",
          "transactionIndex": "0x83",
          "logIndex": "0xf8",
          "removed": false
        },
        {
          "address": "0xe03a1074c86cfedd5c142c4f04f1a1536e203543",
          "topics": [
            "0xf208f4912782fd25c7f114ca3723a2d5dd6f3bcc3ac8db5af63baa85f711d5ec",
            "0x3390c733d8252e864d4ce769398dd3fb8680d1f626719e8d7736d062665f0987",
            "0x000000000000000000000000429ba70129df741b2ca2a85bc3a2a3328e5c09b4"
          ],
          "data": "0xfffffffffffffffffffffffffffffffffffffffffffffffffffffffffffffb50000000000000000000000000000000000000000000000000000000000000000000000000000000000000000000000000000000000000000000000000020c1026000000000000000000000000000000000000000000000000000000000000275d",
          "blockHash": "0x39cf210ac1f620b8b30c5741392f0177714eee045b779b3652e8673221f15feb",
          "blockNumber": "0x7a7453",
          "transactionHash": "0x4b7a6235f080add68161820b179d243cbea48112193d0b2b9d0e07b44aba801b",
          "transactionIndex": "0x83",
          "logIndex": "0xf9",
          "removed": false
        }
      ],
      "logsBloom": "0x00000000000000000000001000008000000000000000000080000000080000000000000000000040080000000000000000000100000000000000000000000000000000200000000000000008000000000000100000000000000000000000000000000000020000000000000000000800000000000000100000020810000000000000000001000000000000000000000000000000000000000000000000000000000004000000000000000000000000000000000000400000000000000000000000080002000000800000000001000000000000000000000000000000000020001000000000000000000000200000000004000000000000000000000000000000",
      "type": "0x2",
      "transactionHash": "0x4b7a6235f080add68161820b179d243cbea48112193d0b2b9d0e07b44aba801b",
      "transactionIndex": "0x83",
      "blockHash": "0x39cf210ac1f620b8b30c5741392f0177714eee045b779b3652e8673221f15feb",
      "blockNumber": "0x7a7453",
      "gasUsed": "0x40b4c",
      "effectiveGasPrice": "0x1b43156",
      "from": "0x6bf0c2c8c188c1775fd889fa8c2ef7a38fab9c25",
      "to": "0x429ba70129df741b2ca2a85bc3a2a3328e5c09b4",
      "contractAddress": null
    }
  ],
  "libraries": [],
  "pending": [],
  "returns": {},
  "timestamp": 1743479281,
  "chain": 11155111,
  "commit": "583eea2"
}