{
  "transactions": [
    {
      "hash": "0x0eb8066ae78a5d9d418dfcb9ff82ae0ceacb1db03c8dcb041d53df29102e6d81",
      "transactionType": "CALL",
      "contractName": null,
      "contractAddress": "0x1f9840a85d5af5bf1d1762f925bdaddc4201f984",
      "function": "approve(address,uint256)",
      "arguments": [
        "0x000000000022D473030F116dDEE9F6B43aC78BA3",
        "115792089237316195423570985008687907853269984665640564039457584007913129639935"
      ],
      "transaction": {
        "from": "0x6bf0c2c8c188c1775fd889fa8c2ef7a38fab9c25",
        "to": "0x1f9840a85d5af5bf1d1762f925bdaddc4201f984",
        "gas": "0x10c6e",
        "value": "0x0",
        "input": "0x095ea7b3000000000000000000000000000000000022d473030f116ddee9f6b43ac78ba3ffffffffffffffffffffffffffffffffffffffffffffffffffffffffffffffff",
        "nonce": "0x4e",
        "chainId": "0xaa36a7"
      },
      "additionalContracts": [],
      "isFixedGasLimit": false
    },
    {
      "hash": "0xd1443888d4e70ca0c554665e126330ea91551fac0deb78bd3aa70898459ccce3",
      "transactionType": "CALL",
      "contractName": null,
      "contractAddress": "0x000000000022d473030f116ddee9f6b43ac78ba3",
      "function": "approve(address,address,uint160,uint48)",
      "arguments": [
        "0x1f9840a85d5aF5bf1D1762F925BDADdC4201F984",
        "0x429ba70129df741B2Ca2a85BC3A2a3328e5c09b4",
        "1461501637330902918203684832716283019655932542975",
        "281474976710655"
      ],
      "transaction": {
        "from": "0x6bf0c2c8c188c1775fd889fa8c2ef7a38fab9c25",
        "to": "0x000000000022d473030f116ddee9f6b43ac78ba3",
        "gas": "0x1112d",
        "value": "0x0",
        "input": "0x87517c450000000000000000000000001f9840a85d5af5bf1d1762f925bdaddc4201f984000000000000000000000000429ba70129df741b2ca2a85bc3a2a3328e5c09b4000000000000000000000000ffffffffffffffffffffffffffffffffffffffff0000000000000000000000000000000000000000000000000000ffffffffffff",
        "nonce": "0x4f",
        "chainId": "0xaa36a7"
      },
      "additionalContracts": [],
      "isFixedGasLimit": false
    },
    {
      "hash": "0x9468476616a22cd20c2b9488f2557490aa6ee2f589649a2305d27e4dff6ab36b",
      "transactionType": "CALL",
      "contractName": null,
      "contractAddress": "0x429ba70129df741b2ca2a85bc3a2a3328e5c09b4",
      "function": "modifyLiquidities(bytes,uint256)",
      "arguments": [
        "0x000000000000000000000000000000000000000000000000000000000000004000000000000000000000000000000000000000000000000000000000000000800000000000000000000000000000000000000000000000000000000000000002020d00000000000000000000000000000000000000000000000000000000000000000000000000000000000000000000000000000000000000000000000000020000000000000000000000000000000000000000000000000000000000000040000000000000000000000000000000000000000000000000000000000000020000000000000000000000000000000000000000000000000000000000000001a000000000000000000000000000000000000000000000000000000000000000000000000000000000000000001f9840a85d5af5bf1d1762f925bdaddc4201f9840000000000000000000000000000000000000000000000000000000000000bb8000000000000000000000000000000000000000000000000000000000000003c0000000000000000000000000000000000000000000000000000000000000000fffffffffffffffffffffffffffffffffffffffffffffffffffffffffffffb50000000000000000000000000000000000000000000000000000000000000000000000000000000000000000000000000000000000000000000000000020c102600000000000000000000000000000000000000000000000000005af3107a400000000000000000000000000000000000000000000000000000000000001e88670000000000000000000000006bf0c2c8c188c1775fd889fa8c2ef7a38fab9c2500000000000000000000000000000000000000000000000000000000000001800000000000000000000000000000000000000000000000000000000000000000000000000000000000000000000000000000000000000000000000000000004000000000000000000000000000000000000000000000000000000000000000000000000000000000000000001f9840a85d5af5bf1d1762f925bdaddc4201f984",
        "1743480612"
      ],
      "transaction": {
        "from": "0x6bf0c2c8c188c1775fd889fa8c2ef7a38fab9c25",
        "to": "0x429ba70129df741b2ca2a85bc3a2a3328e5c09b4",
        "gas": "0x539bd",
        "value": "0x5af3107a4000",
        "input": "0xdd46508f00000000000000000000000000000000000000000000000000000000000000400000000000000000000000000000000000000000000000000000000067eb67240000000000000000000000000000000000000000000000000000000000000300000000000000000000000000000000000000000000000000000000000000004000000000000000000000000000000000000000000000000000000000000000800000000000000000000000000000000000000000000000000000000000000002020d00000000000000000000000000000000000000000000000000000000000000000000000000000000000000000000000000000000000000000000000000020000000000000000000000000000000000000000000000000000000000000040000000000000000000000000000000000000000000000000000000000000020000000000000000000000000000000000000000000000000000000000000001a000000000000000000000000000000000000000000000000000000000000000000000000000000000000000001f9840a85d5af5bf1d1762f925bdaddc4201f9840000000000000000000000000000000000000000000000000000000000000bb8000000000000000000000000000000000000000000000000000000000000003c0000000000000000000000000000000000000000000000000000000000000000fffffffffffffffffffffffffffffffffffffffffffffffffffffffffffffb50000000000000000000000000000000000000000000000000000000000000000000000000000000000000000000000000000000000000000000000000020c102600000000000000000000000000000000000000000000000000005af3107a400000000000000000000000000000000000000000000000000000000000001e88670000000000000000000000006bf0c2c8c188c1775fd889fa8c2ef7a38fab9c2500000000000000000000000000000000000000000000000000000000000001800000000000000000000000000000000000000000000000000000000000000000000000000000000000000000000000000000000000000000000000000000004000000000000000000000000000000000000000000000000000000000000000000000000000000000000000001f9840a85d5af5bf1d1762f925bdaddc4201f984",
        "nonce": "0x50",
        "chainId": "0xaa36a7"
      },
      "additionalContracts": [],
      "isFixedGasLimit": false
    }
  ],
  "receipts": [
    {
      "status": "0x1",
      "cumulativeGasUsed": "0xda5d3b",
      "logs": [
        {
          "address": "0x1f9840a85d5af5bf1d1762f925bdaddc4201f984",
          "topics": [
            "0x8c5be1e5ebec7d5bd14f71427d1e84f3dd0314c0f7b2291e5b200ac8c7c3b925",
            "0x0000000000000000000000006bf0c2c8c188c1775fd889fa8c2ef7a38fab9c25",
            "0x000000000000000000000000000000000022d473030f116ddee9f6b43ac78ba3"
          ],
          "data": "0x0000000000000000000000000000000000000000ffffffffffffffffffffffff",
          "blockHash": "0xdf61648b151f4213c8dc64cb25a2f2b12f8b97171c0ca714a0226c4a65701c6c",
          "blockNumber": "0x7a74bd",
          "transactionHash": "0x0eb8066ae78a5d9d418dfcb9ff82ae0ceacb1db03c8dcb041d53df29102e6d81",
          "transactionIndex": "0x7d",
          "logIndex": "0xdb",
          "removed": false
        }
      ],
      "logsBloom": "0x00000000000000000000000000000000000000000000000000000000000000000000000000000000000000000000001000000000800000000000000000200000000000000000000000004000100000000000000000000800000000000000000008000000000000000000000000000000000000000000000000020000000000000000000000000000000000000000000000000000000000000000000000000000020000000000000000000000000000000000000000000000000000000000000000000000000000000000000001000000000000000000000000000000000000000010000000000000000000200000000000000000000000000000000000000000",
      "type": "0x2",
      "transactionHash": "0x0eb8066ae78a5d9d418dfcb9ff82ae0ceacb1db03c8dcb041d53df29102e6d81",
      "transactionIndex": "0x7d",
      "blockHash": "0xdf61648b151f4213c8dc64cb25a2f2b12f8b97171c0ca714a0226c4a65701c6c",
      "blockNumber": "0x7a74bd",
      "gasUsed": "0xb78b",
      "effectiveGasPrice": "0x2c1e5cc",
      "from": "0x6bf0c2c8c188c1775fd889fa8c2ef7a38fab9c25",
      "to": "0x1f9840a85d5af5bf1d1762f925bdaddc4201f984",
      "contractAddress": null
    },
    {
      "status": "0x1",
      "cumulativeGasUsed": "0xdb1805",
      "logs": [
        {
          "address": "0x000000000022d473030f116ddee9f6b43ac78ba3",
          "topics": [
            "0xda9fa7c1b00402c17d0161b249b1ab8bbec047c5a52207b9c112deffd817036b",
            "0x0000000000000000000000006bf0c2c8c188c1775fd889fa8c2ef7a38fab9c25",
            "0x0000000000000000000000001f9840a85d5af5bf1d1762f925bdaddc4201f984",
            "0x000000000000000000000000429ba70129df741b2ca2a85bc3a2a3328e5c09b4"
          ],
          "data": "0x000000000000000000000000ffffffffffffffffffffffffffffffffffffffff0000000000000000000000000000000000000000000000000000ffffffffffff",
          "blockHash": "0xdf61648b151f4213c8dc64cb25a2f2b12f8b97171c0ca714a0226c4a65701c6c",
          "blockNumber": "0x7a74bd",
          "transactionHash": "0xd1443888d4e70ca0c554665e126330ea91551fac0deb78bd3aa70898459ccce3",
          "transactionIndex": "0x7e",
          "logIndex": "0xdc",
          "removed": false
        }
      ],
      "logsBloom": "0x00010000000000000000000000000000000000000000000000000000000000000000000000000040080000000000000000000000000000000000080000080000000000000000000000000000000000000000000000000010000000000000000000000000000000000000000000000000000000000000000000020800000000000020000000000000000000000000000000000000000000000000000000000000000000000000000000000000000000000000000000000000000000080000000000000000000000000000000001000000000000000000000040000000000000000000000000000000000000200000000080000000000000000000000000000400",
      "type": "0x2",
      "transactionHash": "0xd1443888d4e70ca0c554665e126330ea91551fac0deb78bd3aa70898459ccce3",
      "transactionIndex": "0x7e",
      "blockHash": "0xdf61648b151f4213c8dc64cb25a2f2b12f8b97171c0ca714a0226c4a65701c6c",
      "blockNumber": "0x7a74bd",
      "gasUsed": "0xbaca",
      "effectiveGasPrice": "0x2c1e5cc",
      "from": "0x6bf0c2c8c188c1775fd889fa8c2ef7a38fab9c25",
      "to": "0x000000000022d473030f116ddee9f6b43ac78ba3",
      "contractAddress": null
    },
    {
      "status": "0x1",
      "cumulativeGasUsed": "0xdee085",
      "logs": [
        {
          "address": "0x429ba70129df741b2ca2a85bc3a2a3328e5c09b4",
          "topics": [
            "0xddf252ad1be2c89b69c2b068fc378daa952ba7f163c4a11628f55a4df523b3ef",
            "0x0000000000000000000000000000000000000000000000000000000000000000",
            "0x0000000000000000000000006bf0c2c8c188c1775fd889fa8c2ef7a38fab9c25",
            "0x000000000000000000000000000000000000000000000000000000000000275f"
          ],
          "data": "0x",
          "blockHash": "0xdf61648b151f4213c8dc64cb25a2f2b12f8b97171c0ca714a0226c4a65701c6c",
          "blockNumber": "0x7a74bd",
          "transactionHash": "0x9468476616a22cd20c2b9488f2557490aa6ee2f589649a2305d27e4dff6ab36b",
          "transactionIndex": "0x7f",
          "logIndex": "0xdd",
          "removed": false
        },
        {
          "address": "0xe03a1074c86cfedd5c142c4f04f1a1536e203543",
          "topics": [
            "0xf208f4912782fd25c7f114ca3723a2d5dd6f3bcc3ac8db5af63baa85f711d5ec",
            "0x053f6a47ccba79e7d5d623173ed6dd5a31cf19c28bae0fb8276f4506295f90da",
            "0x000000000000000000000000429ba70129df741b2ca2a85bc3a2a3328e5c09b4"
          ],
          "data": "0xfffffffffffffffffffffffffffffffffffffffffffffffffffffffffffffb50000000000000000000000000000000000000000000000000000000000000000000000000000000000000000000000000000000000000000000000000020c1026000000000000000000000000000000000000000000000000000000000000275f",
          "blockHash": "0xdf61648b151f4213c8dc64cb25a2f2b12f8b97171c0ca714a0226c4a65701c6c",
          "blockNumber": "0x7a74bd",
          "transactionHash": "0x9468476616a22cd20c2b9488f2557490aa6ee2f589649a2305d27e4dff6ab36b",
          "transactionIndex": "0x7f",
          "logIndex": "0xde",
          "removed": false
        }
      ],
      "logsBloom": "0x00000000000000000000001000000000000000000000080000000000080000000000000000000040080000000000000000000100000000000000000000000000000000000000000000000008000000000000000000000000000000000000000000000000020000000000000040000800000000000000100000020810000000000000000001000000000000000000000000000000000000000000000000000000000004000000000000100000000000040000000000400000000000000000000000000002000000000004000001000000000000000000000000000000000020001000000000000000000000200008000004000000000000000000000000000000",
      "type": "0x2",
      "transactionHash": "0x9468476616a22cd20c2b9488f2557490aa6ee2f589649a2305d27e4dff6ab36b",
      "transactionIndex": "0x7f",
      "blockHash": "0xdf61648b151f4213c8dc64cb25a2f2b12f8b97171c0ca714a0226c4a65701c6c",
      "blockNumber": "0x7a74bd",
      "gasUsed": "0x3c880",
      "effectiveGasPrice": "0x2c1e5cc",
      "from": "0x6bf0c2c8c188c1775fd889fa8c2ef7a38fab9c25",
      "to": "0x429ba70129df741b2ca2a85bc3a2a3328e5c09b4",
      "contractAddress": null
    }
  ],
  "libraries": [],
  "pending": [],
  "returns": {},
  "timestamp": 1743480567,
  "chain": 11155111,
  "commit": "583eea2"
}