{
  "transactions": [
    {
      "hash": "0x100cd8ff581592a50e807d3eacae7d0608c9b46b2f69e952651eff81110cd5e5",
      "transactionType": "CALL",
      "contractName": null,
      "contractAddress": "0x51ad0d703dfe9db5909303abbcf83f81b777e716",
      "function": "approve(address,uint256)",
      "arguments": [
        "0x000000000022D473030F116dDEE9F6B43aC78BA3",
        "115792089237316195423570985008687907853269984665640564039457584007913129639935"
      ],
      "transaction": {
        "from": "0xff83c910c7d493423d8a70ceb35e0385c5c37330",
        "to": "0x51ad0d703dfe9db5909303abbcf83f81b777e716",
        "gas": "0x10c6c",
        "value": "0x0",
        "input": "0x095ea7b3000000000000000000000000000000000022d473030f116ddee9f6b43ac78ba3ffffffffffffffffffffffffffffffffffffffffffffffffffffffffffffffff",
        "nonce": "0xc",
        "chainId": "0x515"
      },
      "additionalContracts": [],
      "isFixedGasLimit": false
    },
    {
      "hash": "0xfcaf4d9b3b77abe03c9d82c1676a699215889bd2b7498c3976d2e84cce228fcf",
      "transactionType": "CALL",
      "contractName": null,
      "contractAddress": "0x000000000022d473030f116ddee9f6b43ac78ba3",
      "function": "approve(address,address,uint160,uint48)",
      "arguments": [
        "0x51AD0d703Dfe9db5909303AbbcF83f81B777E716",
        "0xf969Aee60879C54bAAed9F3eD26147Db216Fd664",
        "1461501637330902918203684832716283019655932542975",
        "281474976710655"
      ],
      "transaction": {
        "from": "0xff83c910c7d493423d8a70ceb35e0385c5c37330",
        "to": "0x000000000022d473030f116ddee9f6b43ac78ba3",
        "gas": "0x1112d",
        "value": "0x0",
        "input": "0x87517c4500000000000000000000000051ad0d703dfe9db5909303abbcf83f81b777e716000000000000000000000000f969aee60879c54baaed9f3ed26147db216fd664000000000000000000000000ffffffffffffffffffffffffffffffffffffffff0000000000000000000000000000000000000000000000000000ffffffffffff",
        "nonce": "0xd",
        "chainId": "0x515"
      },
      "additionalContracts": [],
      "isFixedGasLimit": false
    },
    {
      "hash": "0xa62c013e70a082b4dcb2c9a3aed871703cdc8ea3d475f97dfe47c490d4e9f284",
      "transactionType": "CALL",
      "contractName": null,
      "contractAddress": "0x9d13f44c940146f3fdee00768d373d24eaf9c6e5",
      "function": "approve(address,uint256)",
      "arguments": [
        "0x000000000022D473030F116dDEE9F6B43aC78BA3",
        "115792089237316195423570985008687907853269984665640564039457584007913129639935"
      ],
      "transaction": {
        "from": "0xff83c910c7d493423d8a70ceb35e0385c5c37330",
        "to": "0x9d13f44c940146f3fdee00768d373d24eaf9c6e5",
        "gas": "0x10c6c",
        "value": "0x0",
        "input": "0x095ea7b3000000000000000000000000000000000022d473030f116ddee9f6b43ac78ba3ffffffffffffffffffffffffffffffffffffffffffffffffffffffffffffffff",
        "nonce": "0xe",
        "chainId": "0x515"
      },
      "additionalContracts": [],
      "isFixedGasLimit": false
    },
    {
      "hash": "0x7462d8f7745f1a63a889682bfc4a82f0d18a0b233665fca2123e4a4b8776cf4d",
      "transactionType": "CALL",
      "contractName": null,
      "contractAddress": "0x000000000022d473030f116ddee9f6b43ac78ba3",
      "function": "approve(address,address,uint160,uint48)",
      "arguments": [
        "0x9d13F44C940146f3fDEE00768d373d24EAf9C6e5",
        "0xf969Aee60879C54bAAed9F3eD26147Db216Fd664",
        "1461501637330902918203684832716283019655932542975",
        "281474976710655"
      ],
      "transaction": {
        "from": "0xff83c910c7d493423d8a70ceb35e0385c5c37330",
        "to": "0x000000000022d473030f116ddee9f6b43ac78ba3",
        "gas": "0x101ee",
        "value": "0x0",
        "input": "0x87517c450000000000000000000000009d13f44c940146f3fdee00768d373d24eaf9c6e5000000000000000000000000f969aee60879c54baaed9f3ed26147db216fd664000000000000000000000000ffffffffffffffffffffffffffffffffffffffff0000000000000000000000000000000000000000000000000000ffffffffffff",
        "nonce": "0xf",
        "chainId": "0x515"
      },
      "additionalContracts": [],
      "isFixedGasLimit": false
    },
    {
      "hash": "0x53c6378c8c924a2d201eae96ec5ead506b03dde3580e14fa811b21462183aa56",
      "transactionType": "CALL",
      "contractName": null,
      "contractAddress": "0xf969aee60879c54baaed9f3ed26147db216fd664",
      "function": "multicall(bytes[])",
      "arguments": [
        "[0xf702040500000000000000000000000051ad0d703dfe9db5909303abbcf83f81b777e7160000000000000000000000009d13f44c940146f3fdee00768d373d24eaf9c6e50000000000000000000000000000000000000000000000000000000000000bb8000000000000000000000000000000000000000000000000000000000000003c0000000000000000000000003c7f608436d1ff783370a9770cd16938136ecac0000000000000000000000000000000000000000100000000000000000000000000000000000000000000000000000000000000000000000000000000000000e00000000000000000000000000000000000000000000000000000000000000000, 0xdd46508f00000000000000000000000000000000000000000000000000000000000000400000000000000000000000000000000000000000000000000000000067ecad770000000000000000000000000000000000000000000000000000000000000300000000000000000000000000000000000000000000000000000000000000004000000000000000000000000000000000000000000000000000000000000000800000000000000000000000000000000000000000000000000000000000000002020d00000000000000000000000000000000000000000000000000000000000000000000000000000000000000000000000000000000000000000000000000020000000000000000000000000000000000000000000000000000000000000040000000000000000000000000000000000000000000000000000000000000020000000000000000000000000000000000000000000000000000000000000001a000000000000000000000000051ad0d703dfe9db5909303abbcf83f81b777e7160000000000000000000000009d13f44c940146f3fdee00768d373d24eaf9c6e50000000000000000000000000000000000000000000000000000000000000bb8000000000000000000000000000000000000000000000000000000000000003c0000000000000000000000003c7f608436d1ff783370a9770cd16938136ecac0fffffffffffffffffffffffffffffffffffffffffffffffffffffffffffffda80000000000000000000000000000000000000000000000000000000000000258000000000000000000000000000000000000000000000001d596f2cc56cdb1630000000000000000000000000000000000000000000000000de0b6b3a76400010000000000000000000000000000000000000000000000000de0b6b3a76400010000000000000000000000005b73c5498c1e3b4dba84de0f1833c4a029d9051900000000000000000000000000000000000000000000000000000000000001800000000000000000000000000000000000000000000000000000000000000000000000000000000000000000000000000000000000000000000000000000004000000000000000000000000051ad0d703dfe9db5909303abbcf83f81b777e7160000000000000000000000009d13f44c940146f3fdee00768d373d24eaf9c6e5]"
      ],
      "transaction": {
        "from": "0xff83c910c7d493423d8a70ceb35e0385c5c37330",
        "to": "0xf969aee60879c54baaed9f3ed26147db216fd664",
        "gas": "0xaf0be",
        "value": "0x0",
        "input": "0xac9650d800000000000000000000000000000000000000000000000000000000000000200000000000000000000000000000000000000000000000000000000000000002000000000000000000000000000000000000000000000000000000000000004000000000000000000000000000000000000000000000000000000000000001800000000000000000000000000000000000000000000000000000000000000104f702040500000000000000000000000051ad0d703dfe9db5909303abbcf83f81b777e7160000000000000000000000009d13f44c940146f3fdee00768d373d24eaf9c6e50000000000000000000000000000000000000000000000000000000000000bb8000000000000000000000000000000000000000000000000000000000000003c0000000000000000000000003c7f608436d1ff783370a9770cd16938136ecac0000000000000000000000000000000000000000100000000000000000000000000000000000000000000000000000000000000000000000000000000000000e00000000000000000000000000000000000000000000000000000000000000000000000000000000000000000000000000000000000000000000000000000000000000000000000000000000000000000000000000000000000000364dd46508f00000000000000000000000000000000000000000000000000000000000000400000000000000000000000000000000000000000000000000000000067ecad770000000000000000000000000000000000000000000000000000000000000300000000000000000000000000000000000000000000000000000000000000004000000000000000000000000000000000000000000000000000000000000000800000000000000000000000000000000000000000000000000000000000000002020d00000000000000000000000000000000000000000000000000000000000000000000000000000000000000000000000000000000000000000000000000020000000000000000000000000000000000000000000000000000000000000040000000000000000000000000000000000000000000000000000000000000020000000000000000000000000000000000000000000000000000000000000001a000000000000000000000000051ad0d703dfe9db5909303abbcf83f81b777e7160000000000000000000000009d13f44c940146f3fdee00768d373d24eaf9c6e50000000000000000000000000000000000000000000000000000000000000bb8000000000000000000000000000000000000000000000000000000000000003c0000000000000000000000003c7f608436d1ff783370a9770cd16938136ecac0fffffffffffffffffffffffffffffffffffffffffffffffffffffffffffffda80000000000000000000000000000000000000000000000000000000000000258000000000000000000000000000000000000000000000001d596f2cc56cdb1630000000000000000000000000000000000000000000000000de0b6b3a76400010000000000000000000000000000000000000000000000000de0b6b3a76400010000000000000000000000005b73c5498c1e3b4dba84de0f1833c4a029d9051900000000000000000000000000000000000000000000000000000000000001800000000000000000000000000000000000000000000000000000000000000000000000000000000000000000000000000000000000000000000000000000004000000000000000000000000051ad0d703dfe9db5909303abbcf83f81b777e7160000000000000000000000009d13f44c940146f3fdee00768d373d24eaf9c6e500000000000000000000000000000000000000000000000000000000",
        "nonce": "0x10",
        "chainId": "0x515"
      },
      "additionalContracts": [],
      "isFixedGasLimit": false
    }
  ],
  "receipts": [
    {
      "status": "0x1",
      "cumulativeGasUsed": "0x3cfc5",
      "logs": [
        {
          "address": "0x51ad0d703dfe9db5909303abbcf83f81b777e716",
          "topics": [
            "0x8c5be1e5ebec7d5bd14f71427d1e84f3dd0314c0f7b2291e5b200ac8c7c3b925",
            "0x000000000000000000000000ff83c910c7d493423d8a70ceb35e0385c5c37330",
            "0x000000000000000000000000000000000022d473030f116ddee9f6b43ac78ba3"
          ],
          "data": "0xffffffffffffffffffffffffffffffffffffffffffffffffffffffffffffffff",
          "blockHash": "0xa3c7f46c56c0bde85c7438c64c89b21cdb47fc8b13d47ba9eea588e7390e92a4",
          "blockNumber": "0xfefff7",
          "transactionHash": "0x100cd8ff581592a50e807d3eacae7d0608c9b46b2f69e952651eff81110cd5e5",
          "transactionIndex": "0x5",
          "logIndex": "0x1",
          "removed": false
        }
      ],
      "logsBloom": "0x00000000000000000000000000000000004000000100000000000000000000000000000000000000000000000000000000000000800000000000000000200000000000000000000000004000000000000000000000000800000000000000000000000000000000000000000000000000000000000000000000400000000000000000000010000000000000000000000000000000000000000000000000000000020000000000000000000000000000000000000000000000000000000000000000000000000000000000400000000000000000000000000000000000000000200010000000000000000000000000000000000000000000000000000000000000",
      "type": "0x2",
      "transactionHash": "0x100cd8ff581592a50e807d3eacae7d0608c9b46b2f69e952651eff81110cd5e5",
      "transactionIndex": "0x5",
      "blockHash": "0xa3c7f46c56c0bde85c7438c64c89b21cdb47fc8b13d47ba9eea588e7390e92a4",
      "blockNumber": "0xfefff7",
      "gasUsed": "0xb78a",
      "effectiveGasPrice": "0xf433d",
      "from": "0xff83c910c7d493423d8a70ceb35e0385c5c37330",
      "to": "0x51ad0d703dfe9db5909303abbcf83f81b777e716",
      "contractAddress": null,
      "l1BaseFeeScalar": "0x7d0",
      "l1BlobBaseFee": "0x1",
      "l1BlobBaseFeeScalar": "0xdbba0",
      "l1Fee": "0x2d2236",
      "l1GasPrice": "0xe1a95",
      "l1GasUsed": "0x640"
    },
    {
      "status": "0x1",
      "cumulativeGasUsed": "0x48a8f",
      "logs": [
        {
          "address": "0x000000000022d473030f116ddee9f6b43ac78ba3",
          "topics": [
            "0xda9fa7c1b00402c17d0161b249b1ab8bbec047c5a52207b9c112deffd817036b",
            "0x000000000000000000000000ff83c910c7d493423d8a70ceb35e0385c5c37330",
            "0x00000000000000000000000051ad0d703dfe9db5909303abbcf83f81b777e716",
            "0x000000000000000000000000f969aee60879c54baaed9f3ed26147db216fd664"
          ],
          "data": "0x000000000000000000000000ffffffffffffffffffffffffffffffffffffffff0000000000000000000000000000000000000000000000000000ffffffffffff",
          "blockHash": "0xa3c7f46c56c0bde85c7438c64c89b21cdb47fc8b13d47ba9eea588e7390e92a4",
          "blockNumber": "0xfefff7",
          "transactionHash": "0xfcaf4d9b3b77abe03c9d82c1676a699215889bd2b7498c3976d2e84cce228fcf",
          "transactionIndex": "0x6",
          "logIndex": "0x2",
          "removed": false
        }
      ],
      "logsBloom": "0x00010000000000000000000000000000004000000000000000000000000000000000000000000000000000000000000000000000000000000000000000080000000000000000000000000000000000000000000000000000000000001000000000000000000000000000000000000000000000000040000000400000000000000020000000000000000000000000000000000000000000000000000000000000000000000000000000000000000000000000000000000000000000080000000000000000000000000000000000000000000000000000000040000000040000200000000000000000000000000000000001000000000000000010000000002400",
      "type": "0x2",
      "transactionHash": "0xfcaf4d9b3b77abe03c9d82c1676a699215889bd2b7498c3976d2e84cce228fcf",
      "transactionIndex": "0x6",
      "blockHash": "0xa3c7f46c56c0bde85c7438c64c89b21cdb47fc8b13d47ba9eea588e7390e92a4",
      "blockNumber": "0xfefff7",
      "gasUsed": "0xbaca",
      "effectiveGasPrice": "0xf433d",
      "from": "0xff83c910c7d493423d8a70ceb35e0385c5c37330",
      "to": "0x000000000022d473030f116ddee9f6b43ac78ba3",
      "contractAddress": null,
      "l1BaseFeeScalar": "0x7d0",
      "l1BlobBaseFee": "0x1",
      "l1BlobBaseFeeScalar": "0xdbba0",
      "l1Fee": "0x323f5a",
      "l1GasPrice": "0xe1a95",
      "l1GasUsed": "0x6f5"
    },
    {
      "status": "0x1",
      "cumulativeGasUsed": "0x54219",
      "logs": [
        {
          "address": "0x9d13f44c940146f3fdee00768d373d24eaf9c6e5",
          "topics": [
            "0x8c5be1e5ebec7d5bd14f71427d1e84f3dd0314c0f7b2291e5b200ac8c7c3b925",
            "0x000000000000000000000000ff83c910c7d493423d8a70ceb35e0385c5c37330",
            "0x000000000000000000000000000000000022d473030f116ddee9f6b43ac78ba3"
          ],
          "data": "0xffffffffffffffffffffffffffffffffffffffffffffffffffffffffffffffff",
          "blockHash": "0xa3c7f46c56c0bde85c7438c64c89b21cdb47fc8b13d47ba9eea588e7390e92a4",
          "blockNumber": "0xfefff7",
          "transactionHash": "0xa62c013e70a082b4dcb2c9a3aed871703cdc8ea3d475f97dfe47c490d4e9f284",
          "transactionIndex": "0x7",
          "logIndex": "0x3",
          "removed": false
        }
      ],
      "logsBloom": "0x00000000000000000000000000000000004000000000000001000000000000000000000000000000000000000000000000000000800000000000000000200000000000000000000000004000000000000000000000000800000000000000000000000000000000000000000000000040000000000000000000400000000000000000000000000000000000000000000000000000000000000000000000000000020000000000000000000000000000000000000000000000000000000000000000000000000000000000000000000000000000000000000000000000000000200010000000000000000000000000000004000000000000000000000000000000",
      "type": "0x2",
      "transactionHash": "0xa62c013e70a082b4dcb2c9a3aed871703cdc8ea3d475f97dfe47c490d4e9f284",
      "transactionIndex": "0x7",
      "blockHash": "0xa3c7f46c56c0bde85c7438c64c89b21cdb47fc8b13d47ba9eea588e7390e92a4",
      "blockNumber": "0xfefff7",
      "gasUsed": "0xb78a",
      "effectiveGasPrice": "0xf433d",
      "from": "0xff83c910c7d493423d8a70ceb35e0385c5c37330",
      "to": "0x9d13f44c940146f3fdee00768d373d24eaf9c6e5",
      "contractAddress": null,
      "l1BaseFeeScalar": "0x7d0",
      "l1BlobBaseFee": "0x1",
      "l1BlobBaseFeeScalar": "0xdbba0",
      "l1Fee": "0x2d2236",
      "l1GasPrice": "0xe1a95",
      "l1GasUsed": "0x640"
    },
    {
      "status": "0x1",
      "cumulativeGasUsed": "0x5fcd7",
      "logs": [
        {
          "address": "0x000000000022d473030f116ddee9f6b43ac78ba3",
          "topics": [
            "0xda9fa7c1b00402c17d0161b249b1ab8bbec047c5a52207b9c112deffd817036b",
            "0x000000000000000000000000ff83c910c7d493423d8a70ceb35e0385c5c37330",
            "0x0000000000000000000000009d13f44c940146f3fdee00768d373d24eaf9c6e5",
            "0x000000000000000000000000f969aee60879c54baaed9f3ed26147db216fd664"
          ],
          "data": "0x000000000000000000000000ffffffffffffffffffffffffffffffffffffffff0000000000000000000000000000000000000000000000000000ffffffffffff",
          "blockHash": "0xa3c7f46c56c0bde85c7438c64c89b21cdb47fc8b13d47ba9eea588e7390e92a4",
          "blockNumber": "0xfefff7",
          "transactionHash": "0x7462d8f7745f1a63a889682bfc4a82f0d18a0b233665fca2123e4a4b8776cf4d",
          "transactionIndex": "0x8",
          "logIndex": "0x4",
          "removed": false
        }
      ],
      "logsBloom": "0x00010000000000000000000000000000004000000000000000000000000000000000000000000000000000000000000000000000000000000000000000080000000000000000000000000000000000000000000000000000000000001000000000000000000000000000000000000000000000000040000000400000000000000020000000000000000000000000000000000000000000000000000008000000000000000000000000000000000000000000000000000000000000080000000000000000000000000000000000000010000000000000000040000000000000200000000000000000000000000000000000000000000000000000000000022400",
      "type": "0x2",
      "transactionHash": "0x7462d8f7745f1a63a889682bfc4a82f0d18a0b233665fca2123e4a4b8776cf4d",
      "transactionIndex": "0x8",
      "blockHash": "0xa3c7f46c56c0bde85c7438c64c89b21cdb47fc8b13d47ba9eea588e7390e92a4",
      "blockNumber": "0xfefff7",
      "gasUsed": "0xbabe",
      "effectiveGasPrice": "0xf433d",
      "from": "0xff83c910c7d493423d8a70ceb35e0385c5c37330",
      "to": "0x000000000022d473030f116ddee9f6b43ac78ba3",
      "contractAddress": null,
      "l1BaseFeeScalar": "0x7d0",
      "l1BlobBaseFee": "0x1",
      "l1BlobBaseFeeScalar": "0xdbba0",
      "l1Fee": "0x323f5a",
      "l1GasPrice": "0xe1a95",
      "l1GasUsed": "0x6f5"
    },
    {
      "status": "0x1",
      "cumulativeGasUsed": "0xd77e1",
      "logs": [
        {
          "address": "0x00b036b58a818b1bc34d502d3fe730db729e62ac",
          "topics": [
            "0xdd466e674ea557f56295e2d0218a125ea4b4f0f6f3307b95f85e6110838d6438",
            "0x3db0157b214c59125cd99fd2f6b294d97b87a1fc5c047c10da522c1ec7fe2e42",
            "0x00000000000000000000000051ad0d703dfe9db5909303abbcf83f81b777e716",
            "0x0000000000000000000000009d13f44c940146f3fdee00768d373d24eaf9c6e5"
          ],
          "data": "0x0000000000000000000000000000000000000000000000000000000000000bb8000000000000000000000000000000000000000000000000000000000000003c0000000000000000000000003c7f608436d1ff783370a9770cd16938136ecac000000000000000000000000000000000000000010000000000000000000000000000000000000000000000000000000000000000000000000000000000000000",
          "blockHash": "0xa3c7f46c56c0bde85c7438c64c89b21cdb47fc8b13d47ba9eea588e7390e92a4",
          "blockNumber": "0xfefff7",
          "transactionHash": "0x53c6378c8c924a2d201eae96ec5ead506b03dde3580e14fa811b21462183aa56",
          "transactionIndex": "0x9",
          "logIndex": "0x5",
          "removed": false
        },
        {
          "address": "0xf969aee60879c54baaed9f3ed26147db216fd664",
          "topics": [
            "0xddf252ad1be2c89b69c2b068fc378daa952ba7f163c4a11628f55a4df523b3ef",
            "0x0000000000000000000000000000000000000000000000000000000000000000",
            "0x0000000000000000000000005b73c5498c1e3b4dba84de0f1833c4a029d90519",
            "0x0000000000000000000000000000000000000000000000000000000000000668"
          ],
          "data": "0x",
          "blockHash": "0xa3c7f46c56c0bde85c7438c64c89b21cdb47fc8b13d47ba9eea588e7390e92a4",
          "blockNumber": "0xfefff7",
          "transactionHash": "0x53c6378c8c924a2d201eae96ec5ead506b03dde3580e14fa811b21462183aa56",
          "transactionIndex": "0x9",
          "logIndex": "0x6",
          "removed": false
        },
        {
          "address": "0x00b036b58a818b1bc34d502d3fe730db729e62ac",
          "topics": [
            "0xf208f4912782fd25c7f114ca3723a2d5dd6f3bcc3ac8db5af63baa85f711d5ec",
            "0x3db0157b214c59125cd99fd2f6b294d97b87a1fc5c047c10da522c1ec7fe2e42",
            "0x000000000000000000000000f969aee60879c54baaed9f3ed26147db216fd664"
          ],
          "data": "0xfffffffffffffffffffffffffffffffffffffffffffffffffffffffffffffda80000000000000000000000000000000000000000000000000000000000000258000000000000000000000000000000000000000000000001d596f2cc56cdb1630000000000000000000000000000000000000000000000000000000000000668",
          "blockHash": "0xa3c7f46c56c0bde85c7438c64c89b21cdb47fc8b13d47ba9eea588e7390e92a4",
          "blockNumber": "0xfefff7",
          "transactionHash": "0x53c6378c8c924a2d201eae96ec5ead506b03dde3580e14fa811b21462183aa56",
          "transactionIndex": "0x9",
          "logIndex": "0x7",
          "removed": false
        },
        {
          "address": "0x51ad0d703dfe9db5909303abbcf83f81b777e716",
          "topics": [
            "0xddf252ad1be2c89b69c2b068fc378daa952ba7f163c4a11628f55a4df523b3ef",
            "0x000000000000000000000000ff83c910c7d493423d8a70ceb35e0385c5c37330",
            "0x00000000000000000000000000b036b58a818b1bc34d502d3fe730db729e62ac"
          ],
          "data": "0x0000000000000000000000000000000000000000000000000de0b6b3a7640000",
          "blockHash": "0xa3c7f46c56c0bde85c7438c64c89b21cdb47fc8b13d47ba9eea588e7390e92a4",
          "blockNumber": "0xfefff7",
          "transactionHash": "0x53c6378c8c924a2d201eae96ec5ead506b03dde3580e14fa811b21462183aa56",
          "transactionIndex": "0x9",
          "logIndex": "0x8",
          "removed": false
        },
        {
          "address": "0x9d13f44c940146f3fdee00768d373d24eaf9c6e5",
          "topics": [
            "0xddf252ad1be2c89b69c2b068fc378daa952ba7f163c4a11628f55a4df523b3ef",
            "0x000000000000000000000000ff83c910c7d493423d8a70ceb35e0385c5c37330",
            "0x00000000000000000000000000b036b58a818b1bc34d502d3fe730db729e62ac"
          ],
          "data": "0x0000000000000000000000000000000000000000000000000de0b6b3a7640000",
          "blockHash": "0xa3c7f46c56c0bde85c7438c64c89b21cdb47fc8b13d47ba9eea588e7390e92a4",
          "blockNumber": "0xfefff7",
          "transactionHash": "0x53c6378c8c924a2d201eae96ec5ead506b03dde3580e14fa811b21462183aa56",
          "transactionIndex": "0x9",
          "logIndex": "0x9",
          "removed": false
        }
      ],
      "logsBloom": "0x00000000000000000000000000000000006000000100000001000000000000000000000000002000000000000000000000000000001000000000000000000000000000000000000000000008000000004000000000000000000000001000000000000000020000000000000000004840008000000040000000400050000000000000000011000208000000000008000000000001000000000000000008200000000004080000000000000002000000000800000000000020000000000000000000000002080000000000400000000010000000000000000000000000040020204000000000000000000000000000000005000000000002000010000000022210",
      "type": "0x2",
      "transactionHash": "0x53c6378c8c924a2d201eae96ec5ead506b03dde3580e14fa811b21462183aa56",
      "transactionIndex": "0x9",
      "blockHash": "0xa3c7f46c56c0bde85c7438c64c89b21cdb47fc8b13d47ba9eea588e7390e92a4",
      "blockNumber": "0xfefff7",
      "gasUsed": "0x77b0a",
      "effectiveGasPrice": "0xf433d",
      "from": "0xff83c910c7d493423d8a70ceb35e0385c5c37330",
      "to": "0xf969aee60879c54baaed9f3ed26147db216fd664",
      "contractAddress": null,
      "l1BaseFeeScalar": "0x7d0",
      "l1BlobBaseFee": "0x1",
      "l1BlobBaseFeeScalar": "0xdbba0",
      "l1Fee": "0x8a97af",
      "l1GasPrice": "0xe1a95",
      "l1GasUsed": "0x1331"
    }
  ],
  "libraries": [],
  "pending": [],
  "returns": {},
  "timestamp": 1743564100,
  "chain": 1301,
  "commit": "583eea2"
}